:100000000C9492000C94D5000C94BA000C94BA0095
:100010000C94BA000C94BA000C94BA000C94BA0078
:100020000C94BA000C94BA000C94BA000C94BA0068
:100030000C94BA000C94BA000C94BA000C94BA0058
:100040000C9479020C94BA000C947F0A0C94C20AA6
:100050000C94BA000C94BA000C94BA000C94BA0038
:100060000C94BA000C94BA000000000700020100D2
:100070000003040600000000000000000102040864
:100080001020408001020408102001020408102002
:10009000040404040404040402020202020203032E
:1000A00003030303000000002300260029000000D2
:1000B0000000250028002B0000000000240027007D
:1000C0002A00090212000101008032090400000028
:1000D0000000000012011001FF000008C016DC053E
:1000E0000001010200011C0349004400200035000A
:1000F0003600310030003500300033003800340065
:1001000031001A036300700065002E006B0075005B
:100110002E00610063002E007400680004030904CF
:100120007502FD0A11241FBECFEFD4E0DEBFCDBFA4
:1001300011E0A0E0B1E0E4E0FEE102C005900D9224
:10014000AC34B107D9F712E0ACE4B1E001C01D92C4
:10015000AF34B107E1F711E0C4E2D1E004C0229767
:10016000FE010E94FC0EC032D107C9F70E940804AC
:100170000C94B00C0C940000A82FB92F80E090E0F4
:1001800041E050EA609530E009C02D9182279795B3
:10019000879510F084279527305EC8F36F5FA8F32A
:1001A0000895EADF8D939D930895CF93CFB7CF93B2
:1001B000DF93C3954C9BE9F74C9B0BC04C9B09C04C
:1001C0004C9B07C04C9B05C04C9B03C04C9B01C083
:1001D00089C06F93C0913202DD27C75CDD4F2F933A
:1001E00065E54C9B03C02F916F91E6CF0F931F9352
:1001F0004F9320E040E15F9309B1047104FB27F9BC
:100200003F9350E03BE039C0147140642F77012FD9
:100210005F5F1EC0406819B114712F7752501FC024
:10022000406409B12F770471D1F15F5F00C023C032
:10023000406219B12F77147191F15F5F00C025C042
:1002400004711027515012F45D5F00001150279582
:100250002C3F19B1C8F614710127015027952C3F86
:10026000C8F64227499309B1047110274F73115002
:1002700027952C3FA8F64695469519B1147179F04B
:100280000127015027952C3F98F66B5A60F33150A7
:1002900009B1B0F600C011E01CBB002717C03B50ED
:1002A0003195C31BD04011E01CBB0881033CF9F021
:1002B0000B34E9F0209130021981110F1213EDCFA8
:1002C000093651F10D3211F0013E39F70093370232
:1002D0003F915F914F911F910F912F916F91CCB3EF
:1002E000C0FD67CFDF91CF91CFBFCF9118952091FF
:1002F0003702222369F310913502112339F5343086
:100300003AF13093350220933102109132023BE0F2
:10031000311B309332021CC0009135020130B4F41D
:100320000AE53091050134FD14C000930501C5E2D2
:10033000D2E013C0052710E000C000000BB91AC0BE
:10034000052710E0221F1DC010E021C04AE502C0B1
:1003500032ED432FC4E1D0E032E01AB114615C9A6F
:100360000BB11AB954E120E865E320FF05270BB96A
:10037000279517951C3FF0F66695B8F7B1F720FF63
:1003800005270BB9279517951C3FD0F6279517958C
:1003900017FF052700001C3F0BB9B0F629913A95CD
:1003A00019F70B7E10913602110FC651D0400BB9D0
:1003B00011F01093300211E01CBB00611AB11B7EDA
:1003C000402F4B7E54E05A95F1F70BB91AB94BB94F
:1003D0007FCFCF93FC01C181C1110EC081E10E948A
:1003E000DF03892B21F481E080934E0102C010923B
:1003F0004E018EE491E028C0C130A9F48FE491E071
:100400000E9468079E5F97FD03969C01359527958E
:100410003595279520934D012DE431E0309334023A
:100420002093330218C0C230A9F48FE491E00E94F7
:1004300090079E5F97FD039695958795959587956F
:1004400080934C018CE491E09093340280933302CA
:10045000C1E001C0C0E08C2FCF910895AF92BF9250
:10046000CF92DF92EF92FF920F931F9362E081E1B0
:100470000E9470030E94FE0450E1A52EB12C6EE094
:10048000C62ED12C7FE0E72EF12C0AE010E02BE005
:1004900030E04CE050E06DE070E08FE491E00E94CD
:1004A000D80540E050E060EA70E48FE491E00E94FB
:1004B000AE0560E08FE491E00E94CE058FE491E00C
:1004C0000E948608549A6CE271E080E090E00E94FD
:1004D000E60254981F910F91FF90EF90DF90CF901C
:1004E000BF90AF9008950C9415048FE491E00C94A4
:1004F00005051F920F920FB60F9211242F933F9371
:100500008F939F93AF93BF938091720190917301EA
:10051000A0917401B09175013091710123E0230F16
:100520002D3720F40196A11DB11D05C026E8230F2B
:100530000296A11DB11D20937101809372019093C9
:100540007301A0937401B09375018091760190912D
:100550007701A0917801B09179010196A11DB11D9B
:100560008093760190937701A0937801B0937901FD
:10057000BF91AF919F918F913F912F910F900FBE9F
:100580000F901F9018953FB7F89480917601909145
:100590007701A0917801B091790126B5A89B05C09B
:1005A0002F3F19F00196A11DB11D3FBF6627782F7F
:1005B000892F9A2F620F711D811D911D42E0660FD8
:1005C000771F881F991F4A95D1F70895CF92DF9220
:1005D000EF92FF92CF93DF936B017C010E94C302E5
:1005E000EB01C114D104E104F10479F00E94C302CB
:1005F0006C1B7D0B683E7340A0F381E0C81AD108E4
:10060000E108F108C851DC4FECCFDF91CF91FF90AA
:10061000EF90DF90CF900895789484B5826084BD88
:1006200084B5816084BD85B5826085BD85B58160F6
:1006300085BDEEE6F0E0808181608083E1E8F0E056
:100640001082808182608083808181608083E0E885
:10065000F0E0808181608083E1EBF0E08081846064
:100660008083E0EBF0E0808181608083EAE7F0E066
:1006700080818460808380818260808380818160CA
:1006800080838081806880831092C10008958330C8
:1006900081F028F4813099F08230A1F008958630FD
:1006A000A9F08730B9F08430D1F4809180008F7D3B
:1006B00003C0809180008F7780938000089584B577
:1006C0008F7702C084B58F7D84BD08958091B0007E
:1006D0008F7703C08091B0008F7D8093B000089524
:1006E000CF93DF9390E0FC01E458FF4F2491FC018D
:1006F000E057FF4F8491882349F190E0880F991FBC
:10070000FC01E854FF4FA591B49182559F4FFC0125
:10071000C591D4919FB7611108C0F8948C91209530
:1007200082238C93888182230AC0623051F4F8942A
:100730008C91322F309583238C938881822B8883F0
:1007400004C0F8948C91822B8C939FBFDF91CF9142
:1007500008950F931F93CF93DF931F92CDB7DEB70A
:10076000282F30E0F901E859FF4F8491F901E4584E
:10077000FF4F1491F901E057FF4F04910023C9F096
:10078000882321F069830E9447036981E02FF0E00C
:10079000EE0FFF1FE255FF4FA591B4919FB7F8945C
:1007A0008C91611103C01095812301C0812B8C9322
:1007B0009FBF0F90DF91CF911F910F910895CF931D
:1007C000DF93282F30E0F901E859FF4F8491F901B8
:1007D000E458FF4FD491F901E057FF4FC491CC2367
:1007E00091F081110E944703EC2FF0E0EE0FFF1F04
:1007F000EC55FF4FA591B4912C912D2381E090E011
:1008000021F480E002C080E090E0DF91CF91089574
:100810000E940C030E942E02C9EBDAE00E947302D0
:100820002097E1F30E94B90AF9CFCF93DF9380912B
:100830003502835087FD8AC09091320220913102A7
:100840002D3209F081C0883009F07EC0CCE0D0E0C4
:10085000C91BD109C75CDD4F83EC809325028AE573
:100860008093050110927A018881807621F0CE0173
:100870000E94E90160C08A8110922E029981911133
:1008800006C010922F022EE232E082E050C0953076
:1008900019F4809336023DC09630A9F59B819130C2
:1008A00019F484ED90E004C0923041F482EC90E0C1
:1008B000909334028093330282E121C09330F1F4AB
:1008C000811108C08CE191E090933402809333024F
:1008D00084E015C0813041F482E091E090933402CD
:1008E000809333028AE10BC0823041F486EE90E0BF
:1008F00090933402809333028CE101C080E090E455
:1009000090937A0118C0983079F0993031F480933F
:1009100038022EE232E080E00AC081E09A3009F02D
:1009200080E02EE232E003C028E332E081E0309341
:100930003402209333029F81911104C09E81981745
:1009400008F4892F809304011092350280910501EB
:1009500084FF47C0809104018F3F09F442C0C82F33
:10096000893008F0C8E08C1B809304018091250237
:1009700098E8892780932502CC2331F12091330216
:100980003091340280917A0186FF0BC0A6E2B2E07A
:10099000F9018C2F8A0F94919D9331968A13FBCF86
:1009A00009C0D901E6E2F2E08C2F8E0F9D91919360
:1009B0008E13FCCF8FEF8C0F90E00196820F931F68
:1009C00090933402809333026C2F86E292E00E946F
:1009D000D100CC5FCC3019F08FEF80930401C0932D
:1009E000050184E199B1947131F48150D9F71092E5
:1009F000360210923002DF91CF910895E9E6F0E0DF
:100A0000808182608083E89A089508952F923F92B2
:100A10004F925F926F927F928F929F92AF92BF920E
:100A2000CF92DF92EF92FF920F931F93CF93DF93BA
:100A3000CDB7DEB728970FB6F894DEBF0FBECDBF97
:100A40001C014B013A01290123E333E343E550E460
:100A5000FC01628D738D848D958D0E94180D94011B
:100A6000442737FD4095542F29833A834B835C8379
:100A70009301442737FD4095542F2D833E834F83A8
:100A80005887662457FC6094762C811110C01F9201
:100A90001F9224E0922E9F921F92A12CB12C6501EF
:100AA00014EEE12E1CE0F12E00E010E00FC01F92CA
:100AB0001F9284E0982E9F921F92A12CB12C650169
:100AC00018E8E12E13E1F12E00E010E020E030E024
:100AD000A90169817A818B819C810E94690CF10155
:100AE000778766871F921F929F921F9220E030E0C7
:100AF000A9016D817E818F8198850E94690CF10129
:100B0000718B608B1F921F929F921F9220E030E0AA
:100B1000A901C301B2010E94690CF101738B628BC0
:100B20000FB6F894DEBF0FBECDBF28960FB6F8946F
:100B3000DEBF0FBECDBFDF91CF911F910F91FF9010
:100B4000EF90DF90CF90BF90AF909F908F907F906D
:100B50006F905F904F903F902F900895CF92DF92CB
:100B6000EF92FF926A017B01FC01428F538F648FE9
:100B7000758F23E333E343E550E4C701B6010E94D8
:100B8000180D811106C0FF90EF90DF90CF900C946C
:100B9000C709FF90EF90DF90CF900895FC0161A30B
:100BA00021E0611120E0622FFC0186810C94A903F1
:100BB0004F925F927F928F929F92AF92BF92CF920D
:100BC000DF92EF92FF920F931F93CF93DF9300D0AA
:100BD0001F92CDB7DEB72C01862E942E722E61E0C7
:100BE000882D3B835A8379830E94700361E0892DAD
:100BF0000E94700360E0872D0E94700361E0802FE7
:100C00000E94700360E08E2D0E94700360E08C2DC6
:100C10000E94700360E08A2D0E94700361E0882DBD
:100C20000E94A90360E0892D0E94A903F20180823D
:100C30007981718392825A81538374823B81358397
:100C400006831783E086F186C286D386A486B5869E
:100C500010A220E030E040E050E060E070E0C2012F
:100C60000E94060540E050E060EA70E4F201428F25
:100C7000538F648F758F8AE090E0978F868F61E045
:100C8000C2010F900F900F90DF91CF911F910F91A4
:100C9000FF90EF90DF90CF90BF90AF909F908F909C
:100CA0007F905F904F900C94CE05CF93DF93EC0133
:100CB00088850E94CA092E853F85280F391FC901E2
:100CC0000296DF91CF910895CF93DF93EC018A854F
:100CD0000E94CA0928893989280F391FC90102963B
:100CE000DF91CF910895CF93DF93EC018C850E9423
:100CF000CA092A893B89820F931FDF91CF910895FA
:100D00004F925F926F927F92AF92BF92CF92DF929B
:100D1000EF92FF920F931F932B0123E333E343E5FD
:100D200050E4FC01628D738D848D958D0E94180DA9
:100D3000662457FC6094762C811106C01F921F9286
:100D40008CE08F9384EE05C01F921F9283E18F93F6
:100D500088E88F93A12CB12C6501E12C14E0F12ED1
:100D600000E010E020E030E0A901C301B2010E94E0
:100D7000690CCB010F900F900F900F901F910F9166
:100D8000FF90EF90DF90CF90BF90AF907F906F90EB
:100D90005F904F900895CF93DF93EC010E9455062A
:100DA000BC01CE01DF91CF910C948006CF93DF93ED
:100DB000EC010E946406BC01CE01DF91CF910C943E
:100DC0008006CF93DF93EC010E947306BC01CE0135
:100DD000DF91CF910C9480064F925F926F927F9239
:100DE000AF92BF92CF92DF92EF92FF920F931F9339
:100DF000FC0181A12B01662457FC6094762C23E32F
:100E000033E343E550E4811124C0628D738D848DFA
:100E1000958D0E94180D81110EC01F921F9283E0C4
:100E20008F9380E28F9317ECA12E1CEFB12ECC2470
:100E3000CA94DC2C2FC01F921F9286E08F9380E40F
:100E40008F93B0EEAB2EBCEFBB2ECC24CA94DC2C1F
:100E500021C0628D738D848D958D0E94180D811136
:100E60000CC01F921F921F928EEC8F93A2E3AA2EAA
:100E7000BB24BA94CB2CDB2C0DC01F921F9281E0B7
:100E80008F9383EA8F93FCEFAF2EFEEFBF2ECC241F
:100E9000CA94DC2CE12C14E0F12E00E010E020E0FC
:100EA00030E0A901C301B2010E94690CCB010F908F
:100EB0000F900F900F901F910F91FF90EF90DF9088
:100EC000CF90BF90AF907F906F905F904F900895BC
:100ED000EF92FF920F931F93CF93DF93EC01E12CDE
:100EE000F12C00E010E06E8D7F8DE616F7066CF4B5
:100EF000CE010E945506BC01CE010E94EC06080FEF
:100F0000191F8FEFE81AF80AEECFC8010E94960E5B
:100F1000CB01DF91CF911F910F91FF90EF9008953A
:100F2000EF92FF920F931F93CF93DF93EC01E12C8D
:100F3000F12C00E010E06E8D7F8DE616F7066CF464
:100F4000CE010E946406BC01CE010E94EC06080F8F
:100F5000191F8FEFE81AF80AEECFC8010E94960E0B
:100F6000CB01DF91CF911F910F91FF90EF900895EA
:100F7000EF92FF920F931F93CF93DF93EC01E12C3D
:100F8000F12C00E010E06E8D7F8DE616F7066CF414
:100F9000CE010E947306BC01CE010E94EC06080F30
:100FA000191F8FEFE81AF80AEECFC8010E94960EBB
:100FB000CB01DF91CF911F910F91FF90EF9008959A
:100FC000AF92BF92CF92DF92EF92FF920F931F9357
:100FD000CF93DF93EC010AE0A02EB12CC12CD12CD1
:100FE00000E010E0E12CF12CCE010E946807E80E31
:100FF000F91ECE010E949007080F191FCE010E9412
:10100000B807C80ED91E81E0A81AB108A114B1040E
:1010100059F72AE030E0C701B9010E94960EEB01B2
:10102000C801B9010E94960EFB01C601B9010E94D8
:10103000960ECE01D7FF04C0882799278C1B9D0BE5
:1010400044E650E0481B590B141615061CF0AC0181
:10105000445651099F01F7FF04C0222733272E1B56
:101060003F0B84E690E0821B930B181619061CF0C8
:10107000C90184569109DB0177FF04C0AA27BB2769
:10108000A61BB70B24E630E02A1B3B0B12161306F7
:101090001CF09D0124563109481759074CF442179A
:1010A000530734F41C161D06DCF481E090E023C0E5
:1010B000841795074CF48217930734F41E161F0605
:1010C00094F482E090E017C0241735077CF42817C9
:1010D000390764F41616170664F483E090E00BC039
:1010E0008FEF9FEF08C08EEF9FEF05C080E090E08C
:1010F00002C08DEF9FEFDF91CF911F910F91FF9075
:10110000EF90DF90CF90BF90AF9008952F923F92D5
:101110004F925F926F927F928F929F92AF92BF9207
:10112000CF92DF92EF92FF920F931F93CF93DF93B3
:10113000EC010E94E0074AE050E0BC018BE791E03F
:101140000E94510C67E071E08BE791E00E94910BE7
:1011500000E010E0412C512C320153014201730197
:10116000620184E6282E312CB801882777FD80950E
:10117000982F0E94B70D20E030E44CE955E40E941E
:10118000180D87FF45C0CE010E94CB06BC01882701
:1011900077FD8095982F0E94B70D9B01AC01C70188
:1011A000B6010E94B40C6B017C01CE010E94D606F0
:1011B000BC01882777FD8095982F0E94B70D9B0171
:1011C000AC01C501B4010E94B40C4B015C01CE011D
:1011D0000E94E106BC01882777FD8095982F0E9428
:1011E000B70D9B01AC01C301B2010E94B40C2B01ED
:1011F0003C01C801B1010E94960E892B31F46FE1C8
:1012000071E08BE791E00E94910B0F5F1F4FACCF15
:1012100089A120E030E44CE955E4811133C0C301D9
:10122000B2010E941C0D9B01AC0160E070E88AEEE7
:1012300094E40E94B30C0E94840D2B013C0120E039
:1012400030E44CE955E4C501B4010E941C0D9B013A
:10125000AC0160E070EE80ED94E40E94B30C0E945B
:10126000840D4B015C0120E030E44CE955E4C701FA
:10127000B6010E941C0D9B01AC0160E070E081EDA5
:1012800094E432C0C301B2010E941C0D9B01AC0169
:1012900060E070E289E195E40E94B30C0E94840D45
:1012A0002B013C0120E030E44CE955E4C501B401D8
:1012B0000E941C0D9B01AC0160E070E48EEC94E494
:1012C0000E94B30C0E94840D4B015C0120E030E4CD
:1012D0004CE955E4C701B6010E941C0D9B01AC010D
:1012E00060E070E48EEC94E40E94B30C0E94840DE4
:1012F0009201A401CE010E940605CE010E94E007E2
:101300001816190634F4CE010E94E007039731F451
:1013100026C0CE010E94E007039609F161E271E068
:101320008BE791E00E94910B20E030E040E050E03C
:1013300060E070E0CE01DF91CF911F910F91FF909F
:10134000EF90DF90CF90BF90AF909F908F907F9065
:101350006F905F904F903F902F900C94060566E33E
:1013600071E08BE791E0DF91CF911F910F91FF909A
:10137000EF90DF90CF90BF90AF909F908F907F9035
:101380006F905F904F903F902F900C94910B8093B3
:10139000060108958E3008F08E5087702091060166
:1013A00090E4299F90011124822B80937C008091EE
:1013B0007A00806480937A0080917A0086FDFCCF69
:1013C000809178002091790090E0922B0895FC01A3
:1013D00024853585F901E05CFF4F80819181F90119
:1013E000EE5BFF4F20813181821B930B8F73992716
:1013F0000895FC0184859585FC01E05CFF4F4081E8
:101400005181FC01EE5BFF4F208131814217530770
:1014100041F00190F081E02DE80FF91F808190E00C
:1014200008958FEF9FEF0895FC0184859585FC0159
:10143000E05CFF4F40815181FC01EE5BFF4F20815A
:1014400031814217530779F0A081B181A80FB91FEC
:101450008C91208131812F5F3F4F2F733327318350
:10146000208390E008958FEF9FEF0895FC0181A104
:10147000882329F0A489B5898C9186FFFBCF11A21E
:101480000895CF93DF93FC0126853785D901A05CB1
:10149000BF4F8D919C91119701968F739927E90108
:1014A000CE5BDF4F4881598184179507D9F30D90A2
:1014B000BC91A02DA20FB31F6C93A685B785A05C2D
:1014C000BF4F11969C938E93A689B7892C9181E08A
:1014D00090E0078C02C0880F991F0A94E2F7282B2E
:1014E0002C9381E081A30488F589E02D80818064BC
:1014F000808381E090E0DF91CF91089508951F925D
:101500000F920FB60F9211242F933F934F938F9307
:101510009F93EF93FF938091C00082FD1CC0409188
:10152000C600809121029091220201968F73992723
:1015300020912302309124028217930771F0E091E9
:101540002102F0912202EF51FE4F4083909322023C
:101550008093210202C08091C600FF91EF919F917C
:101560008F914F913F912F910F900FBE0F901F9031
:1015700018958BE791E00E94E709892B11F00C94F4
:101580007E0A08951F920F920FB60F9211242F9387
:101590003F938F939F93EF93FF932091DD013091C1
:1015A000DE018091DF019091E0012817390731F4C5
:1015B0008091C1008F7D8093C10014C0E091DF0154
:1015C000F091E001E356FE4F20818091DF01909180
:1015D000E00101968F7399279093E0018093DF01DA
:1015E0002093C600FF91EF919F918F913F912F9192
:1015F0000F900FBE0F901F90189510927E011092C1
:101600007D0188EE93E0A0E0B0E080937F019093AD
:101610008001A0938101B093820180E491E09093D6
:101620007C0180937B0181EE91E09093880180930F
:1016300087018DE991E090938A018093890185EC7F
:1016400090E090938C0180938B0184EC90E09093D8
:101650008E0180938D0180EC90E0909390018093B7
:101660008F0181EC90E0909392018093910182EC44
:1016700090E0909394018093930186EC90E0909396
:1016800096018093950184E08093970183E0809395
:10169000980187E08093990185E080939A0181E029
:1016A00080939B010895CF92DF92EF92FF920F9368
:1016B0001F93CF93DF936C017A01EB01E60EF71EC7
:1016C00000E010E0CE15DF0561F06991D601ED91E3
:1016D000FC910190F081E02DC6010995080F191FBA
:1016E000F1CFC801DF91CF911F910F91FF90EF9043
:1016F000DF90CF9008956115710581F0DB010D90A9
:101700000020E9F7AD0141505109461B570BDC01A0
:10171000ED91FC910280F381E02D099480E090E04E
:1017200008950C947B0BDC01ED91FC910190F0810C
:10173000E02D09940F931F93CF93DF93EC016DE09D
:101740000E94930B8C016AE0CE010E94930B800FE4
:10175000911FDF91CF911F910F9108958F929F92CA
:10176000AF92BF92CF92DF92EF92FF920F931F93AF
:10177000CF93DF93CDB7DEB7A1970FB6F894DEBF56
:101780000FBECDBF7C01C42EE52FCB01D22E19A2F6
:1017900021E02D1510F02AE0D22E8E010F5D1F4F93
:1017A0008D2C912CA12CB12C6C2D7E2FA501940198
:1017B0000E94AA0E8C2DD29E80191124015011096D
:1017C0008A3014F4805D01C0895CF80180832115A2
:1017D00031054105510521F0C22EE32FCA01E4CFA6
:1017E000B801C7010E947B0BA1960FB6F894DEBF2B
:1017F0000FBECDBFDF91CF911F910F91FF90EF9062
:10180000DF90CF90BF90AF909F908F900895CF9230
:10181000DF92EF92FF920F931F93CF93DF93EC0130
:101820006A017B012115310579F4E881F981019084
:10183000F081E02D642FDF91CF911F910F91FF90E8
:10184000EF90DF90CF9009942A303105E9F477FFCB
:101850001AC06DE20E94930B8C0144275527BA01F0
:101860004C195D096E097F092AE0CE010E94AE0B7A
:10187000800F911FDF91CF911F910F91FF90EF90FB
:10188000DF90CF9008952AE0B701A601CE01DF9145
:10189000CF911F910F91FF90EF90DF90CF900C941C
:1018A000AE0B0F931F93CF93DF93EC019A01AB0123
:1018B000662757FD6095762F0E94070C8C01CE019C
:1018C0000E949A0B800F911FDF91CF911F910F9172
:1018D00008954F925F926F927F92AF92BF92CF9294
:1018E000DF92EF92FF920F931F93CF93DF93CDB7C9
:1018F000DEB729013A01621B730B840B950B298912
:101900003A894B895C892A193B094C095D09298B65
:101910003A8B4B8B5C8B9B01AC0169897A898B89F3
:101920009C890E94720EE418F50806091709A8019F
:1019300097010E94CC0E2A0D3B1D4C1D5D1DCA0156
:10194000B901DF91CF911F910F91FF90EF90DF9040
:10195000CF90BF90AF907F906F905F904F90089521
:10196000F8940C94000F5058BB27AA270ED075C1CD
:1019700066D130F06BD120F031F49F3F11F41EF4AA
:101980005BC10EF4E095E7FB51C1E92F77D180F3FD
:10199000BA17620773078407950718F071F49EF56C
:1019A0008FC10EF4E0950B2EBA2FA02D0B01B901BB
:1019B00090010C01CA01A0011124FF27591B99F0C5
:1019C000593F50F4503E68F11A16F040A22F232FD1
:1019D000342F4427585FF3CF469537952795A79521
:1019E000F0405395C9F77EF41F16BA0B620B730BC8
:1019F000840BBAF09150A1F0FF0FBB1F661F771F39
:101A0000881FC2F70EC0BA0F621F731F841F48F4ED
:101A1000879577956795B795F7959E3F08F0B3CF73
:101A20009395880F08F09927EE0F9795879508955D
:101A3000D9D008F481E008950CD00FC107D140F04F
:101A4000FED030F021F45F3F19F0F0C0511139C1E0
:101A5000F3C014D198F39923C9F35523B1F3951B1F
:101A6000550BBB27AA2762177307840738F09F5FBF
:101A70005F4F220F331F441FAA1FA9F333D00E2E2E
:101A80003AF0E0E830D091505040E695001CCAF79B
:101A900029D0FE2F27D0660F771F881FBB1F261760
:101AA00037074807AB07B0E809F0BB0B802DBF0133
:101AB000FF2793585F4F2AF09E3F510568F0B6C04C
:101AC00000C15F3FECF3983EDCF386957795679510
:101AD000B795F7959F5FC9F7880F911D96958795E4
:101AE00097F90895E1E0660F771F881FBB1F621703
:101AF00073078407BA0720F0621B730B840BBA0BC1
:101B0000EE1F88F7E095089504D06894B111D9C00C
:101B10000895BCD088F09F5790F0B92F9927B751FE
:101B2000A0F0D1F0660F771F881F991F1AF0BA95A1
:101B3000C9F712C0B13081F0C3D0B1E00895C0C080
:101B4000672F782F8827B85F39F0B93FCCF3869597
:101B500077956795B395D9F73EF4909580957095F4
:101B600061957F4F8F4F9F4F0895E89409C097FB71
:101B70003EF490958095709561957F4F8F4F9F4F64
:101B80009923A9F0F92F96E9BB279395F6958795A8
:101B900077956795B795F111F8CFFAF4BB0F11F46B
:101BA00060FF1BC06F5F7F4F8F4F9F4F16C0882312
:101BB00011F096E911C0772321F09EE8872F762F48
:101BC00005C0662371F096E8862F70E060E02AF089
:101BD0009A95660F771F881FDAF7880F9695879575
:101BE00097F90895990F0008550FAA0BE0E8FEEF4A
:101BF00016161706E807F907C0F012161306E407D1
:101C0000F50798F0621B730B840B950B39F40A26C9
:101C100061F0232B242B252B21F408950A2609F4A7
:101C2000A140A6958FEF811D811D089597F99F67AB
:101C300080E870E060E008959FEF80EC0895002454
:101C40000A941616170618060906089500240A9421
:101C500012161306140605060895092E0394000CA7
:101C600011F4882352F0BB0F40F4BF2B11F460FF36
:101C700004C06F5F7F4F8F4F9F4F089557FD90585F
:101C8000440F551F59F05F3F71F04795880F97FB40
:101C9000991F61F09F3F79F08795089512161306FA
:101CA0001406551FF2CF4695F1DF08C01616170629
:101CB0001806991FF1CF869571056105089408955E
:101CC000E894BB2766277727CB0197F908950E94F0
:101CD000EB0EA59F900DB49F900DA49F800D911DBC
:101CE00011240895DB018F939F930E94670EBF918B
:101CF000AF91A29F800D911DA39F900DB29F900D5B
:101D000011240895AA1BBB1B51E107C0AA1FBB1FCA
:101D1000A617B70710F0A61BB70B881F991F5A9577
:101D2000A9F780959095BC01CD01089597FB072EEA
:101D300016F4009407D077FD09D00E94820E07FCAC
:101D400005D03EF4909581959F4F089570956195CB
:101D50007F4F0895A1E21A2EAA1BBB1BFD010DC0E7
:101D6000AA1FBB1FEE1FFF1FA217B307E407F5074B
:101D700020F0A21BB30BE40BF50B661F771F881F27
:101D8000991F1A9469F760957095809590959B01BD
:101D9000AC01BD01CF010895052E97FB1EF4009400
:101DA0000E94E30E57FD07D00E94AA0E07FC03D045
:101DB0004EF40C94E30E50954095309521953F4F8D
:101DC0004F4F5F4F089590958095709561957F4F27
:101DD0008F4F9F4F0895A29FB001B39FC001A39F53
:101DE000700D811D1124911DB29F700D811D112454
:101DF000911D0895EE0FFF1F0590F491E02D0994B9
:041E0000F894FFCF84
:101E040001000000FF5A010A43616C696272617447
:101E1400696E67204D4D4137333631303131002EF4
:101E2400000A756E61626C6520746F2063616C6971
:101E34006272617465000A444F4E45000000000060
:0C1E4400410A530BE709140AF909360A99
:00000001FF
