:100000000C9490000C94C8000C94AD000C94AD00BE
:100010000C94AD000C94AD000C94AD000C94AD00AC
:100020000C94AD000C94AD000C94AD000C94AD009C
:100030000C94AD000C94AD000C94AD000C94AD008C
:100040000C9456020C94AD000C94AD000C94AD00D1
:100050000C94AD000C94AD000C94AD000C94AD006C
:100060000C94AD000C94AD000000000700020100EC
:100070000003040600000000000000000102040864
:100080001020408001020408102001020408102002
:10009000040404040404040402020202020203032E
:1000A00003030303000000002300260029000000D2
:1000B0000000250028002B0000000000240027007D
:1000C0002A00090212000101008032090400000028
:1000D0000000000012011001FF000008C016DC053E
:1000E0000001010200011C0349004400200035000A
:1000F0003600310030003500300033003800340065
:1001000031001A036300700065002E006B0075005B
:100110002E00610063002E007400680004030904CF
:1001200011241FBECFEFD4E0DEBFCDBF11E0A0E0B1
:10013000B1E0EEECF9E002C005900D92A430B107F9
:10014000D9F711E0A4E0B1E001C01D92AB33B107D3
:10015000E1F70E94E5030C94E2040C940000A82F40
:10016000B92F80E090E041E050EA609530E009C0AE
:100170002D9182279795879510F084279527305EDB
:10018000C8F36F5FA8F30895EADF8D939D930895F8
:10019000CF93CFB7CF93DF93C3954C9BE9F74C9B9D
:1001A0000BC04C9B09C04C9B07C04C9B05C04C9B93
:1001B00003C04C9B01C089C06F93C0911E01DD2715
:1001C000CB5DDE4F2F9365E54C9B03C02F916F9164
:1001D000E6CF0F931F934F9320E040E15F9309B167
:1001E000047104FB27F93F9350E03BE039C01471E0
:1001F00040642F77012F5F5F1EC0406819B11471F2
:100200002F7752501FC0406409B12F770471D1F18C
:100210005F5F00C023C0406219B12F77147191F164
:100220005F5F00C025C004711027515012F45D5F5C
:100230000000115027952C3F19B1C8F61471012701
:10024000015027952C3FC8F64227499309B1047104
:1002500010274F73115027952C3FA8F646954695C9
:1002600019B1147179F00127015027952C3F98F6A8
:100270006B5A60F3315009B1B0F600C011E01CBBFD
:10028000002717C03B503195C31BD04011E01CBB69
:100290000881033CF9F00B34E9F020911C0119812D
:1002A000110F1213EDCF093651F10D3211F0013E4D
:1002B00039F7009323013F915F914F911F910F9167
:1002C0002F916F91CCB3C0FD67CFDF91CF91CFBF9E
:1002D000CF91189520912301222369F310912101D8
:1002E000112339F534303AF13093210120931D0167
:1002F00010911E013BE0311B30931E011CC0009188
:1003000021010130B4F40AE53091020134FD14C03A
:1003100000930201C1E1D1E013C0052710E000C045
:1003200000000BB91AC0052710E0221F1DC010E005
:1003300021C04AE502C032ED432FC4E1D0E032E0F3
:100340001AB114615C9A0BB11AB954E120E865E363
:1003500020FF05270BB9279517951C3FF0F66695EA
:10036000B8F7B1F720FF05270BB9279517951C3F64
:10037000D0F62795179517FF052700001C3F0BB9EE
:10038000B0F629913A9519F70B7E10912201110FC1
:10039000C651D0400BB911F010931C0111E01CBBE9
:1003A00000611AB11B7E402F4B7E54E05A95F1F745
:1003B0000BB91AB94BB97FCFCF93FC01C181C111E1
:1003C00010C062818481811102C08EE007C081303B
:1003D00011F48FE003C0823021F580E10E94860392
:1003E00020C0C13069F481E10E94BC03892B19F45B
:1003F000C093060102C01092060126E031E00BC056
:10040000C23071F482E10E94390290930501809319
:10041000040124E031E03093200120931F0101C04A
:10042000C0E08C2FCF91089561E08EE00E944D03D3
:1004300061E08FE00E944D0361E080E10E944D0386
:1004400062E081E10E944D0360E082E10E944D0381
:1004500061E083E00E944D030E94DB04549A6CE249
:1004600071E080E090E00E94C302549808950C94DB
:10047000F2038E3008F08E5087702091000190E4D6
:10048000299F90011124822B80937C0080917A0017
:10049000806480937A0080917A0086FDFCCF809101
:1004A00078002091790090E0922B08951F920F928E
:1004B0000FB60F9211242F933F938F939F93AF9377
:1004C000BF938091080190910901A0910A01B09118
:1004D0000B013091070123E0230F2D3720F4019603
:1004E000A11DB11D05C026E8230F0296A11DB11D57
:1004F000209307018093080190930901A0930A01BA
:10050000B0930B0180910C0190910D01A0910E010F
:10051000B0910F010196A11DB11D80930C01909324
:100520000D01A0930E01B0930F01BF91AF919F9168
:100530008F913F912F910F900FBE0F901F901895A4
:100540003FB7F89480910C0190910D01A0910E019C
:10055000B0910F0126B5A89B05C02F3F19F0019659
:10056000A11DB11D3FBF6627782F892F9A2F620FDB
:10057000711D811D911D42E0660F771F881F991F15
:100580004A95D1F70895CF92DF92EF92FF92CF93E1
:10059000DF936B017C010E94A002EB01C114D10426
:1005A000E104F10479F00E94A0026C1B7D0B683E0F
:1005B0007340A0F381E0C81AD108E108F108C851DE
:1005C000DC4FECCFDF91CF91FF90EF90DF90CF9099
:1005D0000895789484B5826084BD84B5816084BDBB
:1005E00085B5826085BD85B5816085BDEEE6F0E0AC
:1005F000808181608083E1E8F0E010828081826008
:100600008083808181608083E0E8F0E08081816088
:100610008083E1EBF0E0808184608083E0EBF0E0B8
:10062000808181608083EAE7F0E08081846080835C
:100630008081826080838081816080838081806806
:1006400080831092C1000895833081F028F48130B6
:1006500099F08230A1F008958630A9F08730B9F082
:100660008430D1F4809180008F7D03C08091800020
:100670008F7780938000089584B58F7702C084B50A
:100680008F7D84BD08958091B0008F7703C08091E5
:10069000B0008F7D8093B0000895CF93DF9390E0FA
:1006A000FC01E458FF4F2491FC01E057FF4F849177
:1006B000882349F190E0880F991FFC01E854FF4F0F
:1006C000A591B49182559F4FFC01C591D4919FB7DC
:1006D000611108C0F8948C91209582238C938881B5
:1006E00082230AC0623051F4F8948C91322F3095F5
:1006F00083238C938881822B888304C0F8948C9107
:10070000822B8C939FBFDF91CF9108950F931F93FE
:10071000CF93DF931F92CDB7DEB7282F30E0F901DA
:10072000E859FF4F8491F901E458FF4F1491F90102
:10073000E057FF4F04910023C9F0882321F069831B
:100740000E9424036981E02FF0E0EE0FFF1FE255C5
:10075000FF4FA591B4919FB7F8948C91611103C09C
:100760001095812301C0812B8C939FBF0F90DF9147
:10077000CF911F910F910895CF93DF93282F30E0F1
:10078000F901E859FF4F8491F901E458FF4FD491E2
:10079000F901E057FF4FC491CC2391F081110E94E1
:1007A0002403EC2FF0E0EE0FFF1FEC55FF4FA59157
:1007B000B4912C912D2381E090E021F480E002C0DF
:1007C00080E090E0DF91CF9108950E94E9020E94BD
:1007D0001402C0E0D0E00E9437022097E1F30E94AB
:1007E0000000F9CFCF93DF9380912101835087FDE3
:1007F0008AC090911E0120911D012D3209F081C007
:10080000883009F07EC0CCE0D0E0C91BD109CB5DB7
:10081000DE4F83EC809311018AE5809302011092F0
:1008200010018881807621F0CE010E94DC0160C039
:100830008A8110921A019981911106C010921B01B0
:100840002AE131E082E050C0953019F48093220112
:100850003DC09630A9F59B81913019F484ED90E06C
:1008600004C0923041F482EC90E090932001809398
:100870001F0182E121C09330F1F4811108C08CE1A5
:1008800091E09093200180931F0184E015C0813096
:1008900041F482E091E09093200180931F018AE16E
:1008A0000BC0823041F486EE90E09093200180935B
:1008B0001F018CE101C080E090E49093100118C00A
:1008C000983079F0993031F4809324012AE131E0B5
:1008D00080E00AC081E09A3009F080E02AE131E04E
:1008E00003C024E231E081E03093200120931F0116
:1008F0009F81911104C09E81981708F4892F8093DD
:100900000101109221018091020184FF47C0809172
:1009100001018F3F09F442C0C82F893008F0C8E0B8
:100920008C1B809301018091110198E889278093A5
:100930001101CC2331F120911F01309120018091D0
:10094000100186FF0BC0A2E1B1E0F9018C2F8A0FE4
:1009500094919D9331968A13FBCF09C0D901E2E1AE
:10096000F1E08C2F8E0F9D9191938E13FCCF8FEF22
:100970008C0F90E00196820F931F9093200180933B
:100980001F016C2F82E191E00E94C400CC5FCC304B
:1009900019F08FEF80930101C093020184E199B1B6
:1009A000947131F48150D9F71092220110921C01F8
:1009B000DF91CF910895E9E6F0E080818260808345
:0E09C000E89A0895F8940C94E504F894FFCF9B
:0409CE0001FF5A00CB
:00000001FF
